{
  "transactions": [
    {
      "hash": "0xb53c018f06f3f1cfe71a978905d7b46a53bb70bd2efaed7494f4a30b6387782c",
      "transactionType": "CALL",
      "contractName": null,
      "contractAddress": "0x7395d4d3fdfb6f10dd3fdcf8857a7c892e367e68",
      "function": "createGame(bytes32)",
      "arguments": [
        "0xfbc34aadd00ce5b16dcaf8b6b2cfb0e9f70e058124ce971645dfdc0beb70fe05"
      ],
      "transaction": {
        "from": "0xe8c764ba48caebd35a6663bc3bbba3d1efdac14f",
        "to": "0x7395d4d3fdfb6f10dd3fdcf8857a7c892e367e68",
        "gas": "0x2201d",
        "value": "0x2386f26fc10000",
        "input": "0x457391e5fbc34aadd00ce5b16dcaf8b6b2cfb0e9f70e058124ce971645dfdc0beb70fe05",
        "nonce": "0x5",
        "chainId": "0xaa36a7"
      },
      "additionalContracts": [],
      "isFixedGasLimit": false
    },
    {
      "hash": "0xb8353c9ec5effa3576f8061fe05d5bc380a6e6b998d7e87e9e7821f42e7078a0",
      "transactionType": "CALL",
      "contractName": null,
      "contractAddress": "0x7395d4d3fdfb6f10dd3fdcf8857a7c892e367e68",
      "function": "joinGame(uint256,uint8)",
      "arguments": [
        "2",
        "3"
      ],
      "transaction": {
        "from": "0x810753b525df90dd7a09e8508299007653332e1f",
        "to": "0x7395d4d3fdfb6f10dd3fdcf8857a7c892e367e68",
        "gas": "0x1906b",
        "value": "0x2386f26fc10000",
        "input": "0xca6649c500000000000000000000000000000000000000000000000000000000000000020000000000000000000000000000000000000000000000000000000000000003",
        "nonce": "0x1",
        "chainId": "0xaa36a7"
      },
      "additionalContracts": [],
      "isFixedGasLimit": false
    },
    {
      "hash": "0x9466ac94ca20469ca8a133594c738d63f9af53acf7b84b750f5a848b453eef05",
      "transactionType": "CALL",
      "contractName": null,
      "contractAddress": "0x7395d4d3fdfb6f10dd3fdcf8857a7c892e367e68",
      "function": "revealChoice(uint256,uint8,string)",
      "arguments": [
        "2",
        "1",
        "\"secret\""
      ],
      "transaction": {
        "from": "0xe8c764ba48caebd35a6663bc3bbba3d1efdac14f",
        "to": "0x7395d4d3fdfb6f10dd3fdcf8857a7c892e367e68",
        "gas": "0xc2d7",
        "value": "0x0",
        "input": "0xd07e55b000000000000000000000000000000000000000000000000000000000000000020000000000000000000000000000000000000000000000000000000000000001000000000000000000000000000000000000000000000000000000000000006000000000000000000000000000000000000000000000000000000000000000067365637265740000000000000000000000000000000000000000000000000000",
        "nonce": "0x6",
        "chainId": "0xaa36a7"
      },
      "additionalContracts": [],
      "isFixedGasLimit": false
    },
    {
      "hash": "0x6b3aaa14115a7704407c9a1aeda4b3e094737e85dcecdfa3af454e42fcf0a626",
      "transactionType": "CALL",
      "contractName": null,
      "contractAddress": "0x7395d4d3fdfb6f10dd3fdcf8857a7c892e367e68",
      "function": "withdrawFunds(uint256)",
      "arguments": [
        "2"
      ],
      "transaction": {
        "from": "0xe8c764ba48caebd35a6663bc3bbba3d1efdac14f",
        "to": "0x7395d4d3fdfb6f10dd3fdcf8857a7c892e367e68",
        "gas": "0xb234",
        "value": "0x0",
        "input": "0x155dd5ee0000000000000000000000000000000000000000000000000000000000000002",
        "nonce": "0x7",
        "chainId": "0xaa36a7"
      },
      "additionalContracts": [],
      "isFixedGasLimit": false
    }
  ],
  "receipts": [
    {
      "status": "0x1",
      "cumulativeGasUsed": "0x986b34",
      "logs": [
        {
          "address": "0x7395d4d3fdfb6f10dd3fdcf8857a7c892e367e68",
          "topics": [
            "0x7dfb67e9ff596fca4da65c7eedb128cd1aac553af54b3c0cb733625a2480d8bd"
          ],
          "data": "0x0000000000000000000000000000000000000000000000000000000000000002000000000000000000000000e8c764ba48caebd35a6663bc3bbba3d1efdac14f000000000000000000000000000000000000000000000000002386f26fc10000",
          "blockHash": "0x3ebf46795ab517b4285d5406a7f8071638baf68b0bb676dd724232070ce04019",
          "blockNumber": "0x60eb06",
          "transactionHash": "0xb53c018f06f3f1cfe71a978905d7b46a53bb70bd2efaed7494f4a30b6387782c",
          "transactionIndex": "0x56",
          "logIndex": "0x9c",
          "removed": false
        }
      ],
      "logsBloom": "0x00000000000000000000000000000000000000000000000000000000000000000400000000000000000000000000000000000000000000000000000000000000000000000000000000000000000000000000000000000000000000000000000000000000080000000000000000000000000000000000000000000000000000000001000000000000000000000000000000000000000000000000000000000000000000000000000000000001000000000001000000000000001000000000000000000000000000000000000000000000000000000000000000000000000000000000000000000000000000000000000000000000000000000000000000000000",
      "type": "0x2",
      "transactionHash": "0xb53c018f06f3f1cfe71a978905d7b46a53bb70bd2efaed7494f4a30b6387782c",
      "transactionIndex": "0x56",
      "blockHash": "0x3ebf46795ab517b4285d5406a7f8071638baf68b0bb676dd724232070ce04019",
      "blockNumber": "0x60eb06",
      "gasUsed": "0x189ef",
      "effectiveGasPrice": "0x146b45fe",
      "from": "0xe8c764ba48caebd35a6663bc3bbba3d1efdac14f",
      "to": "0x7395d4d3fdfb6f10dd3fdcf8857a7c892e367e68",
      "contractAddress": null
    },
    {
      "status": "0x1",
      "cumulativeGasUsed": "0x559cae",
      "logs": [
        {
          "address": "0x7395d4d3fdfb6f10dd3fdcf8857a7c892e367e68",
          "topics": [
            "0x45c4f9cbafe186141862608c493f28b823fde4c2142bedc3f5169961a73fdd22"
          ],
          "data": "0x0000000000000000000000000000000000000000000000000000000000000002000000000000000000000000810753b525df90dd7a09e8508299007653332e1f",
          "blockHash": "0x8696cac37ef559ce084bf24d5f9b73cfe5614cbfeb805f8935c172f2edec9d11",
          "blockNumber": "0x60eb07",
          "transactionHash": "0xb8353c9ec5effa3576f8061fe05d5bc380a6e6b998d7e87e9e7821f42e7078a0",
          "transactionIndex": "0x3e",
          "logIndex": "0x4b",
          "removed": false
        }
      ],
      "logsBloom": "0x00000000000000800000000000000000000000000000000000000000000000000000000000000000000000000000000000000000000000000000000000000000000000000000000000000000000000000000000000000000000000000000000000000000080000000000000000000000000000000000000000000000000000000001000000000000000000000000000000000000000000000000000000000800000000000000000000000001000000000000000000000000000000000000000000000000000000000000000000000000400000000000000000000000000000000000000000000000000000000000000000000000000000000000000000000000",
      "type": "0x2",
      "transactionHash": "0xb8353c9ec5effa3576f8061fe05d5bc380a6e6b998d7e87e9e7821f42e7078a0",
      "transactionIndex": "0x3e",
      "blockHash": "0x8696cac37ef559ce084bf24d5f9b73cfe5614cbfeb805f8935c172f2edec9d11",
      "blockNumber": "0x60eb07",
      "gasUsed": "0x111cb",
      "effectiveGasPrice": "0x1410a96c",
      "from": "0x810753b525df90dd7a09e8508299007653332e1f",
      "to": "0x7395d4d3fdfb6f10dd3fdcf8857a7c892e367e68",
      "contractAddress": null
    },
    {
      "status": "0x1",
      "cumulativeGasUsed": "0x9a5dea",
      "logs": [
        {
          "address": "0x7395d4d3fdfb6f10dd3fdcf8857a7c892e367e68",
          "topics": [
            "0x67a65ec25115523b341c85ef61950da78cd3dea21f0b9d94d952b0f7d537c05e"
          ],
          "data": "0x0000000000000000000000000000000000000000000000000000000000000002000000000000000000000000e8c764ba48caebd35a6663bc3bbba3d1efdac14f0000000000000000000000000000000000000000000000000000000000000001",
          "blockHash": "0x215c2dbb44a063e01a521a0ac2c09ebafbe37ae659806f378824c21bfa7caef6",
          "blockNumber": "0x60eb08",
          "transactionHash": "0x9466ac94ca20469ca8a133594c738d63f9af53acf7b84b750f5a848b453eef05",
          "transactionIndex": "0x58",
          "logIndex": "0x6e",
          "removed": false
        }
      ],
      "logsBloom": "0x00000000000000000000000000000000000000000000000000000000000000000000000000000000000000000000000000000000000000000000000000000000000000000000000000000000000000000000000000000000000000000000000000000000080000000000000000000000000000000000000000000000000000000001000000000000000000000000000000000000000000000000000000000000000000000000000000000001000000000000000001000000000000000000000000000000000000000000000000000000000000000000000000000000000000000000000000000000000000000000000000000000000000408000000000000000",
      "type": "0x2",
      "transactionHash": "0x9466ac94ca20469ca8a133594c738d63f9af53acf7b84b750f5a848b453eef05",
      "transactionIndex": "0x58",
      "blockHash": "0x215c2dbb44a063e01a521a0ac2c09ebafbe37ae659806f378824c21bfa7caef6",
      "blockNumber": "0x60eb08",
      "gasUsed": "0x8d10",
      "effectiveGasPrice": "0x138eaa98",
      "from": "0xe8c764ba48caebd35a6663bc3bbba3d1efdac14f",
      "to": "0x7395d4d3fdfb6f10dd3fdcf8857a7c892e367e68",
      "contractAddress": null
    },
    {
      "status": "0x1",
      "cumulativeGasUsed": "0xfa865b",
      "logs": [],
      "logsBloom": "0x00000000000000000000000000000000000000000000000000000000000000000000000000000000000000000000000000000000000000000000000000000000000000000000000000000000000000000000000000000000000000000000000000000000000000000000000000000000000000000000000000000000000000000000000000000000000000000000000000000000000000000000000000000000000000000000000000000000000000000000000000000000000000000000000000000000000000000000000000000000000000000000000000000000000000000000000000000000000000000000000000000000000000000000000000000000",
      "type": "0x2",
      "transactionHash": "0x6b3aaa14115a7704407c9a1aeda4b3e094737e85dcecdfa3af454e42fcf0a626",
      "transactionIndex": "0x7f",
      "blockHash": "0x129498100f72044794d186b381db8b4c2bcb8464c96a8bc9e01814c4d67df2f2",
      "blockNumber": "0x60eb0a",
      "gasUsed": "0x79da",
      "effectiveGasPrice": "0x12cdc630",
      "from": "0xe8c764ba48caebd35a6663bc3bbba3d1efdac14f",
      "to": "0x7395d4d3fdfb6f10dd3fdcf8857a7c892e367e68",
      "contractAddress": null
    }
  ],
  "libraries": [],
  "pending": [],
  "returns": {},
  "timestamp": 1721583774,
  "chain": 11155111,
  "commit": "0d91ebe"
}