{
  "transactions": [
    {
      "hash": "0xe76c2491a218d588176debd3adcd31dbd9697963e1d9f9181414940a7841d4c5",
      "transactionType": "CALL",
      "contractName": null,
      "contractAddress": "0x7395d4d3fdfb6f10dd3fdcf8857a7c892e367e68",
      "function": "createGame(bytes32)",
      "arguments": [
        "0xfbc34aadd00ce5b16dcaf8b6b2cfb0e9f70e058124ce971645dfdc0beb70fe05"
      ],
      "transaction": {
        "from": "0xe8c764ba48caebd35a6663bc3bbba3d1efdac14f",
        "to": "0x7395d4d3fdfb6f10dd3fdcf8857a7c892e367e68",
        "gas": "0x2a1d1",
        "value": "0x2386f26fc10000",
        "input": "0x457391e5fbc34aadd00ce5b16dcaf8b6b2cfb0e9f70e058124ce971645dfdc0beb70fe05",
        "nonce": "0x3",
        "chainId": "0xaa36a7"
      },
      "additionalContracts": [],
      "isFixedGasLimit": false
    },
    {
      "hash": "0x73acbbf4be4ef65d4df8da6644d01eca1d7b30e6f5ccf3ce8e3641c071338fbb",
      "transactionType": "CALL",
      "contractName": null,
      "contractAddress": "0x7395d4d3fdfb6f10dd3fdcf8857a7c892e367e68",
      "function": "joinGame(uint256,uint8)",
      "arguments": [
        "1",
        "2"
      ],
      "transaction": {
        "from": "0x810753b525df90dd7a09e8508299007653332e1f",
        "to": "0x7395d4d3fdfb6f10dd3fdcf8857a7c892e367e68",
        "gas": "0x179f9",
        "value": "0x2386f26fc10000",
        "input": "0xca6649c500000000000000000000000000000000000000000000000000000000000000010000000000000000000000000000000000000000000000000000000000000002",
        "nonce": "0x0",
        "chainId": "0xaa36a7"
      },
      "additionalContracts": [],
      "isFixedGasLimit": false
    },
    {
      "hash": "0x66021710c4f9e826db5c150f4d7456165e526ac4933b3db23574ad825e43b0e1",
      "transactionType": "CALL",
      "contractName": null,
      "contractAddress": "0x7395d4d3fdfb6f10dd3fdcf8857a7c892e367e68",
      "function": "revealChoice(uint256,uint8,string)",
      "arguments": [
        "1",
        "1",
        "\"secret\""
      ],
      "transaction": {
        "from": "0xe8c764ba48caebd35a6663bc3bbba3d1efdac14f",
        "to": "0x7395d4d3fdfb6f10dd3fdcf8857a7c892e367e68",
        "gas": "0xcf6b",
        "value": "0x0",
        "input": "0xd07e55b000000000000000000000000000000000000000000000000000000000000000010000000000000000000000000000000000000000000000000000000000000001000000000000000000000000000000000000000000000000000000000000006000000000000000000000000000000000000000000000000000000000000000067365637265740000000000000000000000000000000000000000000000000000",
        "nonce": "0x4",
        "chainId": "0xaa36a7"
      },
      "additionalContracts": [],
      "isFixedGasLimit": false
    }
  ],
  "receipts": [
    {
      "status": "0x1",
      "cumulativeGasUsed": "0x1405d0c",
      "logs": [
        {
          "address": "0x7395d4d3fdfb6f10dd3fdcf8857a7c892e367e68",
          "topics": [
            "0x7dfb67e9ff596fca4da65c7eedb128cd1aac553af54b3c0cb733625a2480d8bd"
          ],
          "data": "0x0000000000000000000000000000000000000000000000000000000000000001000000000000000000000000e8c764ba48caebd35a6663bc3bbba3d1efdac14f000000000000000000000000000000000000000000000000002386f26fc10000",
          "blockHash": "0x9b44879c164f2b471362792d1668deac95effb4138ff6ee918ac79dc95cf47ff",
          "blockNumber": "0x60ead2",
          "transactionHash": "0xe76c2491a218d588176debd3adcd31dbd9697963e1d9f9181414940a7841d4c5",
          "transactionIndex": "0x6b",
          "logIndex": "0xa6",
          "removed": false
        }
      ],
      "logsBloom": "0x00000000000000000000000000000000000000000000000000000000000000000400000000000000000000000000000000000000000000000000000000000000000000000000000000000000000000000000000000000000000000000000000000000000080000000000000000000000000000000000000000000000000000000001000000000000000000000000000000000000000000000000000000000000000000000000000000000001000000000001000000000000001000000000000000000000000000000000000000000000000000000000000000000000000000000000000000000000000000000000000000000000000000000000000000000000",
      "type": "0x2",
      "transactionHash": "0xe76c2491a218d588176debd3adcd31dbd9697963e1d9f9181414940a7841d4c5",
      "transactionIndex": "0x6b",
      "blockHash": "0x9b44879c164f2b471362792d1668deac95effb4138ff6ee918ac79dc95cf47ff",
      "blockNumber": "0x60ead2",
      "gasUsed": "0x1ccbb",
      "effectiveGasPrice": "0x15bc8313",
      "from": "0xe8c764ba48caebd35a6663bc3bbba3d1efdac14f",
      "to": "0x7395d4d3fdfb6f10dd3fdcf8857a7c892e367e68",
      "contractAddress": null
    },
    {
      "status": "0x1",
      "cumulativeGasUsed": "0x6bd7ee",
      "logs": [
        {
          "address": "0x7395d4d3fdfb6f10dd3fdcf8857a7c892e367e68",
          "topics": [
            "0x45c4f9cbafe186141862608c493f28b823fde4c2142bedc3f5169961a73fdd22"
          ],
          "data": "0x0000000000000000000000000000000000000000000000000000000000000001000000000000000000000000810753b525df90dd7a09e8508299007653332e1f",
          "blockHash": "0x3c4a99a146c7915e0ffc2f455078178d690c3f534f9839eb0fef704cc4642800",
          "blockNumber": "0x60ead3",
          "transactionHash": "0x73acbbf4be4ef65d4df8da6644d01eca1d7b30e6f5ccf3ce8e3641c071338fbb",
          "transactionIndex": "0x37",
          "logIndex": "0x6a",
          "removed": false
        }
      ],
      "logsBloom": "0x00000000000000800000000000000000000000000000000000000000000000000000000000000000000000000000000000000000000000000000000000000000000000000000000000000000000000000000000000000000000000000000000000000000080000000000000000000000000000000000000000000000000000000001000000000000000000000000000000000000000000000000000000000800000000000000000000000001000000000000000000000000000000000000000000000000000000000000000000000000400000000000000000000000000000000000000000000000000000000000000000000000000000000000000000000000",
      "type": "0x2",
      "transactionHash": "0x73acbbf4be4ef65d4df8da6644d01eca1d7b30e6f5ccf3ce8e3641c071338fbb",
      "transactionIndex": "0x37",
      "blockHash": "0x3c4a99a146c7915e0ffc2f455078178d690c3f534f9839eb0fef704cc4642800",
      "blockNumber": "0x60ead3",
      "gasUsed": "0x111a6",
      "effectiveGasPrice": "0x16acc06c",
      "from": "0x810753b525df90dd7a09e8508299007653332e1f",
      "to": "0x7395d4d3fdfb6f10dd3fdcf8857a7c892e367e68",
      "contractAddress": null
    },
    {
      "status": "0x1",
      "cumulativeGasUsed": "0xa34c4b",
      "logs": [
        {
          "address": "0x7395d4d3fdfb6f10dd3fdcf8857a7c892e367e68",
          "topics": [
            "0x67a65ec25115523b341c85ef61950da78cd3dea21f0b9d94d952b0f7d537c05e"
          ],
          "data": "0x0000000000000000000000000000000000000000000000000000000000000001000000000000000000000000e8c764ba48caebd35a6663bc3bbba3d1efdac14f0000000000000000000000000000000000000000000000000000000000000001",
          "blockHash": "0xacc1f7011789354ff8b7d8c18bb4feae562578345d0ed2602e29b281d66e5187",
          "blockNumber": "0x60ead5",
          "transactionHash": "0x66021710c4f9e826db5c150f4d7456165e526ac4933b3db23574ad825e43b0e1",
          "transactionIndex": "0x63",
          "logIndex": "0x99",
          "removed": false
        }
      ],
      "logsBloom": "0x00000000000000000000000000000000000000000000000000000000000000000000000000000000000000000000000000000000000000000000000000000000000000000000000000000000000000000000000000000000000000000000000000000000080000000000000000000000000000000000000000000000000000000001000000000000000000000000000000000000000000000000000000000000000000000000000000000001000000000000000001000000000000000000000000000000000000000000000000000000000000000000000000000000000000000000000000000000000000000000000000000000000000408000000000000000",
      "type": "0x2",
      "transactionHash": "0x66021710c4f9e826db5c150f4d7456165e526ac4933b3db23574ad825e43b0e1",
      "transactionIndex": "0x63",
      "blockHash": "0xacc1f7011789354ff8b7d8c18bb4feae562578345d0ed2602e29b281d66e5187",
      "blockNumber": "0x60ead5",
      "gasUsed": "0x962c",
      "effectiveGasPrice": "0x157c723d",
      "from": "0xe8c764ba48caebd35a6663bc3bbba3d1efdac14f",
      "to": "0x7395d4d3fdfb6f10dd3fdcf8857a7c892e367e68",
      "contractAddress": null
    }
  ],
  "libraries": [],
  "pending": [],
  "returns": {},
  "timestamp": 1721582991,
  "chain": 11155111,
  "commit": "0d91ebe"
}